:020000040800F2
:10000000C80700209D010008F71E000865190008B8
:10001000F51E0008850200085524000800000000B5
:10002000000000000000000000000000491F000860
:100030001D030008000000001D1F00084B1F0008E2
:10004000B7010008B7010008B7010008B7010008B0
:10005000B7010008B70100081F03000825030008C6
:10006000B7010008B7010008B7010008B701000890
:10007000B7010008B7010008B7010008B701000880
:10008000B701000895020008B7010008B701000891
:1000900089020008B7010008B7010008B70100088D
:1000A000B7010008B7010008B7010008B701000850
:1000B000B7010008B7010008B7010008B701000840
:1000C000B7010008B7010008B7010008211F0008A8
:1000D0002D1F0008312400083D2400084924000891
:1000E000B7010008B7010008B7010008B701000810
:1000F000B7010008B7010008B7010008B701000800
:10010000B7010008B7010008B7010008B7010008EF
:10011000512000085D200008B7010008B701000861
:10012000B7010008B7010008B7010008B7010008CF
:10013000B7010008B7010008B7010008B7010008BF
:10014000B7010008B7010008B7010008B7010008AF
:10015000B7010008B7010008B7010008B70100089F
:10016000B7010008B7010008B7010008B70100088F
:10017000B7010008B7010008B7010008000000003F
:10018000B7010008B7010008DFF80CD000F068F8EC
:100190000048004777240008C80700200648804729
:1001A00006480047FEE7FEE7FEE7FEE7FEE7FEE75C
:1001B000FEE7FEE7FEE7FEE7FD1F000889010008F5
:1001C0002DE9F05F0546002092469B46884606468C
:1001D000814640241BE0284641464746224600F01F
:1001E0002FF853465A46C01A914110D3114618466B
:1001F000224600F016F82D1A67EB01084F462246FA
:100200000120002100F00DF817EB00094E41201EDF
:10021000A4F10104DFDC484631462A464346BDE8E6
:10022000F09F202A04DB203A00FA02F100207047F8
:100230009140C2F1200320FA03F319439040704724
:10024000202A04DB203A21FA02F00021704721FA2B
:1002500002F3D040C2F12002914008431946704792
:10026000064C074D06E0E06840F0010394E8070003
:1002700098471034AC42F6D3FFF78AFFD824000821
:10028000F8240008FEE70000014800F04FB8000025
:1002900010000020014800F021BA0000680300208F
:1002A00001681823CAB2103AB2FBF3F2054B6FF3A0
:1002B0000901032A9B5CC36500D9091D81650846B5
:1002C00070470000B824000810B5014600208B6973
:1002D0008A6A4FF0C07453B1B3F5005F15D072B1A4
:1002E000012A0CD0022A0AD0032A09D104E01AB14B
:1002F000012A06D0022A03D1C96AC90100D501200A
:1003000010BDC96AA142FAD010BD002AF7D0012A57
:10031000F2D0022AF3D0032AF3D010BD7047012097
:1003200000F01CBB022000F019BB70472DE9F05F04
:100330000546006800244669D0F804908768D0F824
:100340000CB0D0F810A0D0F81880F10748D0F90709
:1003500014D001218160B80703D5284600F0A6F922
:100360000CE0780702D54FF4006407E0380702D5A7
:100370004FF4805402E0284600F097F9F80516D5AE
:1003800029684FF480708860B80503D5284600F0CE
:100390008FF90CE0780502D544F4005407E03805E5
:1003A00002D544F4804402E0284600F080F9F803C6
:1003B00016D529684FF480308860B80303D52846E5
:1003C00000F078F90CE0780302D544F4004407E02B
:1003D000380302D544F4803402E0284600F069F97D
:1003E000300707D55FEACB6004D52968102044F4B4
:1003F0000074C86070074FF0080707D55FEA0B70FC
:1004000004D52868C760284600F04AF9B00706D529
:100410002868C068800702D0284600F042F97006BC
:1004200007D55FEACA6004D52968102044F48064C7
:100430000861B00607D55FEA0A7004D5286807612D
:10044000284600F02FF9F00606D5286800698007D5
:1004500002D0284600F027F9B00308D55FEAC9604A
:1004600005D5296810204860284600F01DF9F003E2
:1004700007D55FEA097004D528684760284600F070
:100480001AF9300446D55FEA497040D5F00504D525
:100490005FEAC87001D044F00104B00504D55FEAFA
:1004A000887001D544F00204700504D55FEA4870F5
:1004B00001D544F00404300529D518F0700F26D07A
:1004C00008F07000402815D006DC102809D020283C
:1004D0000AD0302816D10AE050280ED0602811D159
:1004E0000EE044F008040DE044F010040AE044F08B
:1004F000200407E044F0400404E044F0800401E0FC
:1005000044F480742868816921F070018161296850
:1005100004204860002C05D0686A204368622846A1
:10052000FFF703FFBDE8F09F70B5040003D094F817
:10053000200010B104E0012070BD204600F082F8D8
:100540002068016821F00201016000F0F3FA05461D
:10055000052604E000F0EEFA401B0A2811D82068B6
:1005600040688007F6D42068016841F0010101600D
:1005700000F0E0FA05460BE000F0DCFA401B0A2828
:1005800006D9606A40F40030606284F82060D2E7E7
:1005900020684068C007EFD0207E012820680168ED
:1005A0003DD021F080010160607E01282068016853
:1005B00038D021F040010160A07E01282068016848
:1005C00033D021F020010160E07E0128206801681D
:1005D0002ED041F010010160207F012820680168C1
:1005E00029D021F008010160607F0128206801689E
:1005F00024D021F004010160D4E902010843D4E9C8
:100600000412114308436168491E08432168C86108
:1006100000206062012084F82000002070BD41F0BD
:100620008001C0E741F04001C5E741F02001CAE781
:1006300021F01001CFE741F00801D4E741F00401B7
:10064000D9E7000000B50068124987B088421FD181
:1006500011480021026842F000720260006800F058
:10066000007005904FF4C05000900220CDE90101C8
:1006700003200390092004906946084800F07AF9A5
:1006800000220221142000F0A3FB142000F094FBB0
:1006900007B000BD00640040403802400000024046
:1006A0007047704770477047704770477047704792
:1006B000704770477047704790F83510022903D093
:1006C0008021416501207047052180F835100068C0
:1006D000016821F001010160002070472DE9F84315
:1006E00004464FF00009CDF8009065484FF41651CC
:1006F000A56D0068B0FBF1F72E6894F85C10082037
:1007000000FA01F1314210D021680A6852070CD575
:100710000A6822F004020A6094F85C1000FA01F002
:10072000A860606D40F00100606594F85C104FF0C7
:10073000010808FA01F0304208D021684969090629
:1007400004D5A860606D40F00200606594F85C100C
:10075000042000FA01F0304208D0216809688907B6
:1007600004D5A860606D40F00400606594F85C10EA
:10077000102000FA01F0304218D0216809680907FA
:1007800014D5A86020680168490304D500680003F7
:1007900008D5A16C07E00168C90503D4016821F000
:1007A00008010160216C09B12046884794F85C106B
:1007B000202000FA01F0304231D021680968C906D2
:1007C0002DD5A86094F8350005282068016806D06A
:1007D000490347D5006800031DD4616C1CE021F07B
:1007E000160101602068416921F080014161206C9F
:1007F00008B9A06C20B12068016821F008010160EF
:1008000094F85C103F208840A86084F8349084F805
:100810003580216D1FE0E16B09B120468847606D8E
:1008200000282BD0606DC00714D0052084F8350057
:100830002068016821F0010101600098401C0090CF
:10084000B84203D820680068C007F6D184F8349015
:1008500084F83580E16C002910D001B02046BDE855
:10086000F04308470168C905D5D4016821F010019B
:10087000016084F8349084F83580CCE7BDE8F883D3
:100880000C0000202DE9F041044600F053F9064623
:100890005CB1002584F83450022084F835002068CB
:1008A000016821F0010101600DE00120BDE8F08147
:1008B00000F040F9801B052805D920206065032041
:1008C00084F83500F2E720680068C007F0D122689C
:1008D000116820480140D4E901031843D4E90336E4
:1008E0003343184363691843A3691843E369184302
:1008F000236A18430843616A042903D1D4E90B131E
:1009000019430843106020684069666A20F00701B7
:1009100030460E43012704280CD1A06A0643E06A42
:1009200040B12046FFF7D0FC20B14020606584F83C
:100930003570BAE7206846612046FFF7B1FC94F8AD
:100940005C203F2191408160656584F8357000200E
:10095000ACE700003F8010F070470000044910B57C
:100960000A68024202D00860FFF7F6FF10BD0000DF
:10097000143C01402DE9F84FDFF880B100224FF020
:1009800001084FF0030A4FF00F090BF1040E00BFEE
:100990000B6808FA02F42340A34270D14D68022D7F
:1009A00001D0122D0ED1D50800EB850CDCF82050BB
:1009B0005607F70E09FA07F6B5430E69BE402E43F7
:1009C000CCF82060066855000F790AFA05FC07F09C
:1009D000030726EA0C06AF40374307604E68012E36
:1009E00005D0022E03D0112E01D0122E10D187680F
:1009F000CE6827EA0C0706FA05F63E43866046688D
:100A0000A6430C79C4F3001404FA02F4344344609E
:100A1000C4688E6824EA0C0406FA05F62643C6600C
:100A20004C68E40064D5364C256845F48045256063
:100A3000246822F0030504F480440094314C2E19FC
:100A4000346895072F0F09FA07F5AC432E4DA842DD
:100A500001D1002524E02D4DA84201D101251FE040
:100A60002B4DA84201D102251AE02A4DA84201D1FE
:100A7000032515E0284DA84202D1042510E037E0F7
:100A8000264DA84201D105250AE0254DA84201D1F5
:100A9000062505E0234DA84201D1072500E00825E1
:100AA00005FA07F525433560DBF800405D464E68E2
:100AB0009C43F60300D51C432C60DEF800407546CD
:100AC0004E689C43B60300D51C432C600B4D083583
:100AD0002C684E689C43F60200D51C432C60074DE1
:100AE0000C352C684E689C43B60200D51C432C6024
:100AF000521C102AFFF44CAFBDE8F88F003C0140B7
:100B0000443802400838014000000240000402401E
:100B100000080240000C0240001002400014024095
:100B200000180240001C02400AB1816170470904AC
:100B3000FBE70000014880687047000000000020CB
:100B400070B5040004D094F83D00002510B106E013
:100B5000012070BD84F83C50204600F073F824203A
:100B600084F83D002068016821F00101016000F077
:100B700007FA32492268B0FBF1F15160304A6368EC
:100B8000934206D94FF4967359434FF47A73B1FBED
:100B9000F3F12368491C19626168914208D8490041
:100BA000B0FBF1F0C0F30B01042919D2042017E0C7
:100BB000A368A3B301EBC10202EB0112B0FBF2F296
:100BC00042F48042120531D053B301EBC10202EB73
:100BD0000111B0FBF1F040F4804000BF40F4004050
:100BE0002168C861D4E90701084321680860D4E995
:100BF0000310084321688860D4E90501084321688F
:100C0000C8602068016841F001010160256420206E
:100C100084F83D00256384F83E50002070BD00E05C
:100C200006E001EB4102B0FBF2F2CBE70120D7E78F
:100C300001EB4101B0FBF1F0D0E7000040420F00B2
:100C4000A0860100F0B5164F01681222012303258A
:100C500004261448144C87B0B9420DD129028DE8FE
:100C60006E006946FFF786FE206840F400102060A1
:100C7000206800F4001010E00C4FB9420ED14FF480
:100C800040618DE86E006946FFF774FE206840F40D
:100C900080002060206800F48000059007B0F0BD5F
:100CA0000054004000040240403802400058004018
:100CB000024881680278114481607047000000207A
:100CC0000B4810B5016841F400710160016841F4FE
:100CD00080610160016841F480710160032000F0CF
:100CE00097F8002000F006F800F024F8002010BD6E
:100CF000003C024070B50D4D04464FF47A712878DF
:100D0000B1FBF0F00A490968B1FBF0F000F059FCC2
:100D100048B9102C07D200222146501E00F058F886
:100D200000206C6070BD012070BD0000000000203C
:100D30000C0000201F4808B5016841F480410160A3
:100D4000006800F4804000901A48001F016841F0DC
:100D500080510160006800F080500090032000F096
:100D600057F8002211466FF00B0000F031F8002216
:100D700011466FF00A0000F02BF8002211466FF0C8
:100D8000090000F025F800221146501F00F020F85D
:100D900000221146101F00F01BF800221146901E81
:100DA00000F016F80022BDE808401146501E00F081
:100DB0000FB800004438024000F01F0201219140AA
:100DC00040094FF0E02202EB8000C0F800117047AC
:100DD000F0B40E4B1B680C46C3F30223C3F10705A6
:100DE000042D00D90425191D072901D2002300E094
:100DF000DB1E012606FA05F1491E214099409E405E
:100E0000761E16403143F0BC01F078B80CED00E0DE
:100E1000064900F0070208684FF6FF03184040EA51
:100E20000220034A10430860704700000CED00E008
:100E30000000FA05704700002DE9F0470E46050056
:100E400065D0DFF81481D8F80000F7B200F00F0089
:100E5000B04207D288F80070D8F8000000F00F0008
:100E6000B04254D128683D4C810712D5400703D5C4
:100E7000206840F4E05020602878000703D52068FF
:100E800040F4604020602068A96820F0F00008432A
:100E900020602878C0072DD03049686808390128BB
:100EA00012D0022813D0032811D00968890700291D
:100EB0002DDA216821F0030101432160FFF73AFE9A
:100EC000814641F2883A0EE009688903EFE7096834
:100ED0008901ECE7FFF72EFEA0EB0901514502D98D
:100EE0000320BDE8F0872068696800F00C00B0EBD3
:100EF000810FEFD1D8F80010404601F00F01B14248
:100F000007D90770006800F00F00B04201D001203F
:100F1000E7E72878400705D52068E96820F4E05025
:100F2000084320602878000706D52068296920F446
:100F3000604040EAC100206000F042F82168084AA1
:100F4000C1F30311515CC840064908600020FFF757
:100F5000D1FE0020C5E70000003C024008380240F6
:100F6000C02400080C00002001490120C86470471B
:100F70000000474201480068704700000C00002054
:100F80000448054900680968044AC1F38221515C9C
:100F9000C84070470C00002008380240D0240008E8
:100FA0000448054900680968044AC1F34231515CAC
:100FB000C84070470C00002008380240D0240008C8
:100FC000154810B5006810F00C02144813D01449ED
:100FD000042A0FD0082A0ED10F4C241F2268236840
:100FE00002F03F025B0207D52068C0F38810A0FB27
:100FF000010106E0084610BD2168C1F38811A1FB7C
:1010000000010023FFF7DCF82168C1F30141491C0E
:101010004900B0FBF1F010BD083802400024F40094
:1010200040787D01054810B50068000605D5FFF73A
:1010300001FF02498020891C087010BD0C38024055
:101040002DE9F84F050076D02878DFF8FCB2BF4CC8
:10105000C00749D0DBF800105846C1F381010129CF
:1010600008D00068C0F3810002280AD1201D006862
:10107000400206D52068800336D568680028E2D093
:1010800032E06868B0F5803F10D0B0F5A02F20683E
:1010900010D020F480302060206820F48020206070
:1010A0006868A0B1FFF746FD06460CE0206840F4F2
:1010B0008030F4E740F480202060F7E7FFF73AFD46
:1010C000801B642873D820688003F7D50CE0FFF7F5
:1010D00031FD064605E000BFFFF72CFD801B6428AC
:1010E000F0D820688003F7D42878DFF8648280077E
:1010F0004FF000093ED5DBF80010584611F00C0FF8
:1011000009D00068C0F3810002280BD18E48001F6F
:101110000068400206D42068800715D5E8680128D9
:1011200009D111E0E868B8B10120C8F80000FFF764
:1011300001FD064605E004E1FFF7FCFC801B0228E8
:10114000C0D820688007F7D52068296920F0F8000A
:1011500040EAC10020600DE0C8F80090FFF7EAFC0B
:10116000064604E0FFF7E6FC801B0228AAD82068A8
:101170008007F7D42878000722D5734E754869692F
:101180006C3671B101210160FFF7D4FC074604E021
:10119000FFF7D0FCC01B022809D830688007F7D5BC
:1011A0000EE0C0F80090FFF7C5FC074605E082E0BE
:1011B000FFF7C0FCC01B02287DD830688007F7D439
:1011C0002878400769D5DFF880A100270AF1380A9E
:1011D000DAF80000C0000BD4DAF8001041F08051BA
:1011E000CAF80010DAF80000012700F080500090E3
:1011F000594E3068C00510D4306840F480703060BB
:10120000FFF798FC009005E0FFF794FC0099401A66
:10121000022850D83068C005F6D54B4EA86868360D
:1012200001280FD00528306810D020F00100306070
:10123000306820F004003060A868B8B1FFF77AFC8D
:1012400000900FE0306840F00100F4E740F0040047
:101250003060F7E7FFF76EFC0099411A41F28830E1
:10126000814266D830688007F4D50EE0FFF762FC53
:10127000009007E0FFF75EFC0099411A41F28830C8
:10128000814256D830688007F4D4012F05D1DAF8AE
:10129000001021F08051CAF80010A869C8B3DBF82B
:1012A0000010C1F3810102294BD00228484607D023
:1012B000C8F8600000E03CE0FFF73CFC05463BE07E
:1012C0004746C8F86000FFF735FC064605E000BF5A
:1012D000FFF730FC801B02282BD820688001F7D450
:1012E000D5E907010843A96A1C4A490802EB0141F4
:1012F0006A6A41EA8211084395F82C1040EA0161BC
:101300001148001F016001203866FFF713FC0546F5
:1013100005E014E0FFF70EFC401B022809D8206806
:101320008001F7D50BE000BFFFF704FC401B02284B
:1013300002D90320BDE8F88F20688001F4D4002092
:10134000F8E70120F6E700000838024000380240C4
:1013500000004742800E4742007000400000FFFF3F
:101360007047000038B504460068426881684B0643
:1013700005D4CB0703D0530601D5216C04E08B07BD
:1013800007D5130605D5616C01B02046BDE8304095
:10139000084711F4B07F48D0930646D54B060AD5CE
:1013A00094F85130032B3DD0636D43F00403636523
:1013B000C368836800938B0609D5636D43F001030E
:1013C000636583680093036823F040030360C805E6
:1013D00006D5606D40F00800606520688068009068
:1013E000606D002821D02068416821F0E001416053
:1013F000012084F85100900718D02068416821F03E
:10140000030141600B4DE06C18B10565E06CFFF71E
:1014100053F9A06C002808D00565A06CBDE83840E1
:10142000FFF74AB9C1688068009038BD2046FFF7D1
:1014300097FF38BD391F000870B5040005D000259E
:10144000A56294F8510010B106E0012070BD84F847
:101450005050204600F030F8022084F851002068F7
:10146000016821F040010160D4E901010843D4E999
:1014700003121143084361690843218B01F4007191
:101480000843E1690843216A0843A16A08432168C7
:101490000860A069042101EA1040616A08432168DC
:1014A00048602068C16921F40061C161656501205F
:1014B00084F85100002070BD2DE9F04101683348E7
:1014C000002402250326052286B0814219D1304826
:1014D000016841F4805101600068029400F480507A
:1014E0000590F020CDE90005CDE903626946294861
:1014F000FFF740FA002201212320FFF769FC232097
:101500001FE02348244B001FDFF8908099421DD133
:10151000016841F4804101600068029400F4804059
:1015200005904FF47040CDE90005CDE903626946AE
:101530004046FFF71FFA002201212420FFF748FC54
:101540002420FFF739FC06B0BDE8F081144A91422F
:10155000F9D1016841F400410160006802AA00F479
:10156000004005904FF44060CDE900050627D0C249
:1015700069460C48FFF7FEF92020CDE9000502AAD4
:101580006946D0C24046FFF7F5F9DCE7003001407C
:10159000443802400000024000380040000402408D
:1015A000003C0040000802404FF0E0210428086998
:1015B00003D020F004000861704740F00400FAE70F
:1015C000704710B5401EB0F1807F01D3012010BDDF
:1015D0004FF0E02460610F21601700F08FFC0020C5
:1015E000A06107202061002010BD10B5FFF7E8FFC3
:1015F00010BD704770B5026804461068D168536921
:1016000010F00F0F51D003F0010501F4907635432F
:101610005DD0C20705D0CA0503D5E26B42F00102D6
:10162000E263420705D5DA0703D0E26B42F002021B
:10163000E263820705D5DA0703D0E26B42F00402C9
:10164000E263020705D5DA0703D0E26B42F0080235
:10165000E263E26B002A34D0800604D5880602D506
:10166000204600F017FD20684069E16BC0F3801050
:1016700001F008010143204624D000F0FDFC206861
:10168000416949061AD5416921F040014161606B09
:10169000A0B11B490165606BFFF70EF8002810D060
:1016A000606B016DBDE87040084783060FD58B065F
:1016B0000DD52046BDE8704000F0ECBC2046FFF799
:1016C00098FF70BDFFF795FF0020E06370BD030633
:1016D00006D50B0604D52046BDE8704000F076BE66
:1016E0004006F3D54806F1D5D168204621F04001E7
:1016F000D160202184F8391000F033F970BD00006A
:101700006920000870B5040004D094F83900002561
:1017100010B106E0012070BD84F83850204600F07A
:1017200023F8242084F839002068C16821F400518E
:10173000C160204600F0F4FC2068016921F490416A
:1017400001612068416921F02A0141612068C16876
:1017500041F40051C160E563202084F8390084F829
:101760003A00002070BD00002DE9F04F07466C499B
:1017700002686C48032402250826DFF8AC9187B084
:101780004FF0000B4FF001088A4216D1016841F476
:101790000021016000688DE8300100F40020CDE9EF
:1017A0000460694603944846FFF7E4F800220221EA
:1017B0003420FFF70DFB342024E05C49DFF870A1F2
:1017C0008A4224D1016841F48011016000686946B1
:1017D00000F48010059090148DE82101CDE90346B6
:1017E0005046FFF7C7F804208DE82101CDE90346F4
:1017F00069465048FFF7BEF8002201213520FFF767
:10180000E7FA3520FFF7D8FA07B0BDE8F08F454971
:10181000DFF824C1091D0723624518D1086840F08C
:10182000100008600868694600F0100005904FF449
:10183000C0608DE82101CDE903434846FFF79AF8DF
:10184000002202212520FFF7C3FA2520DAE7DFF87E
:10185000ECC0624533D101685E4641F4003101605D
:101860000068694600F40030059060208DE8210191
:10187000CDE903432F48FFF77DF8324C3048206014
:101880004FF0006060604020C4E902060001C4E936
:101890000406A661E661266220466662FEF7F2FF54
:1018A00020B140F2251128A000F0D5FD3C630022B4
:1018B00001212620A763FFF78BFA2620A2E7264FF7
:1018C000BA4218D1016841F480210160006869467C
:1018D00000F4802005904FF440708DE82101CDE99F
:1018E00003431448FFF746F8002202212720FFF7A0
:1018F0006FFA272086E71948824285D1086840F0B0
:10190000200008600868694600F020000590C020AB
:101910008DE82101CDE903465046FFF72BF873E728
:10192000004C00404038024000000240005000409F
:1019300000080240000C024000100140004400403A
:10194000A0600240680300202E2E2F5372632F7573
:10195000736172742E63000000480040001401405F
:1019600070477047FEE70000114810B50F4901604D
:101970001021416000214FF4E0228160C0E9031290
:101980004FF4A00242610176012242768276C1764E
:1019900001774177FEF7C8FD002805D0BDE810406B
:1019A000452104A000F057BD10BD000000640040B8
:1019B000100000202E2E2F5372632F63616E2E6352
:1019C00000000000094808B5016841F400110160F9
:1019D0000068002200F40010009011461120FFF76B
:1019E000F7F9BDE808401120FFF7E6B930380240AA
:1019F0002DE9F047594886B00024016841F01001F4
:101A00000160016801F010010591016841F02001B9
:101A10000160016801F020010591016841F0800139
:101A20000160016801F080010591016841F0010148
:101A30000160016801F001010591016841F00201B6
:101A40000160016801F002010591016841F008019F
:101A50000160016801F008010591016841F004018D
:101A600001600068DFF8F8A000F004000590002293
:101A7000E0215046FFF758F8DFF8E88040F6CC4701
:101A8000002239464046FFF74FF8DFF8DC9000228D
:101A900044F211414846FFF747F801224FF4C05184
:101AA0004846FFF741F8602001250226CDE90005F0
:101AB000CDE9024669465046FEF75CFF41F213103D
:101AC000CDE90004694640460294FEF753FF0097B3
:101AD000CDE90154694640460394FEF74BFF802050
:101AE0000090CDE90154694650460394FEF742FF49
:101AF000A802CDE90005CDE9024669464846FEF751
:101B000039FF45F611000090CDE901546946484679
:101B10000394FEF72FFF68038DE8310069464846BD
:101B2000FEF728FF032000901048CDE90104694624
:101B30005046FEF71FFF002211460620FFF748F926
:101B40000620FFF739F9002211460720FFF740F978
:101B50000720FFF731F906B0BDE8F08730380240C2
:101B60000010024000140240000C0240000011105E
:101B70000E4810B50C4901600D4941600021142246
:101B8000C0E902124FF48042C0E904218161C161C1
:101B90000162FEF7D5FF002805D0BDE810404321C3
:101BA00004A000F058BC10BD0054004038000020D4
:101BB000801A06002E2E2F5372632F6932632E6314
:101BC000000000000E4810B50C4901600D4941604D
:101BD00000211422C0E902124FF48042C0E904211E
:101BE0008161C1610162FEF7ABFF002805D0BDE84D
:101BF0001040562104A000F02EBC10BD005800403B
:101C00008C000020801A06002E2E2F5372632F693D
:101C100032632E6300000000114810B50F490160C7
:101C20004FF482714160002102228160C0E90312F9
:101C300001224261920482610822C0E907214162C7
:101C400081620A21C162FFF7F7FB002805D0BDE8D9
:101C50001040472103A000F0FEBB10BD0030014042
:101C6000E00000202E2E2F5372632F7370692E63B5
:101C700000000000114810B50F4901604FF4827157
:101C80004160002102228160C0E903120122426109
:101C9000920482610822C0E90721416281620A211F
:101CA000C162FFF7C9FB002805D0BDE810405D21E7
:101CB00003A000F0D0BB10BD003800403801002068
:101CC0002E2E2F5372632F7370692E630000000055
:101CD000114810B50F4901604FF482714160002135
:101CE00002228160C0E90312012242615202826134
:101CF0000822C0E90721416281620A21C162FFF71F
:101D00009BFB002805D0BDE81040732103A000F024
:101D1000A2BB10BD003C0040900100202E2E2F538E
:101D200072632F7370692E63000000000D4810B5B8
:101D30000B4901604FF4E1314160002181600C22C8
:101D4000C160C0E904128161C161FFF7DBFC0028BA
:101D500005D0BDE81040482103A000F07CBB10BDB9
:101D6000004C0040E80100202E2E2F5372632F7587
:101D7000736172742E6300000D4810B50B49016049
:101D80004FF4E1314160002181600C22C160C0E963
:101D900004128161C161FFF7B5FC002805D0BDE8E0
:101DA00010405A2103A000F056BB10BD0050004067
:101DB000280200202E2E2F5372632F7573617274C8
:101DC0002E6300000D4810B50B4901604FF4E1315E
:101DD0004160002181600C22C160C0E90412816170
:101DE000C161FFF78FFC002805D0BDE810406D21D0
:101DF00003A000F030BB10BD0010014068020020BD
:101E00002E2E2F5372632F75736172742E63000030
:101E10000D4810B50B4901604FF4E13141600021DC
:101E200081600C22C160C0E904128161C161FFF7C9
:101E300069FC002805D0BDE81040802103A000F017
:101E40000ABB10BD00440040A80200202E2E2F53D4
:101E500072632F75736172742E6300000D4810B5A4
:101E60000B4901604FF4E1314160002181600C2297
:101E7000C160C0E904128161C161FFF743FC002821
:101E800005D0BDE81040932103A000F0E4BA10BDD6
:101E900000480040E80200202E2E2F5372632F7559
:101EA000736172742E6300000D4810B50B49016018
:101EB0004FF4E1314160002181600C22C160C0E932
:101EC00004128161C161FFF71DFC002805D0BDE847
:101ED0001040A62103A000F0BEBA10BD00140140BE
:101EE000280300202E2E2F5372632F757361727496
:101EF0002E630000FEE7FFF795B800000907090E02
:101F0000002803DA00F00F00024A00E0024A815480
:101F10007047000014ED00E000E400E070470000AE
:101F20000148FFF71FBA0000E00000200148FFF75A
:101F300019BA00003801002010B5806B0021C1875C
:101F4000C186FFF70DFA10BD704710B5FEF7B0FE61
:101F5000BDE81040FFF749BB30B5264893B00025D7
:101F6000016841F080510160006800F080501190DC
:101F70002148016841F4804101600068022400F4B6
:101F800080401190012000904FF4A0200190600546
:101F9000CDE90640192008904FF4A870CDE9090456
:101FA00004200B906846FFF74BF800B1FEE70CA940
:101FB0000F2031C14FF4A0500F904FF4805010907B
:101FC00005210CA8FEF738FF00B1FEE7FEF7CCFFB5
:101FD000FEF7D0FF4FF47A71B0FBF1F0FFF7F1FAA2
:101FE0000420FFF7E1FA00221146501EFEF7F0FE32
:101FF00013B030BD40380240007000401048016806
:1020000041F4700101600F48016841F00101016075
:102010000C4A00210832116002680B4B1A40026022
:10202000031D0A4A1A60026822F4802202600548F1
:102030000C30016002495806803908607047000082
:1020400088ED00E000380240FFFFF6FE103000246B
:102050000148FFF7CFBA0000E80100200148FFF770
:10206000C9BA00002802002010B5806B0021C1858C
:10207000C184FFF7BEFA10BD0168CA6822F49072ED
:10208000CA6001684A6922F001024A61202180F891
:102090003A10704710B590F83A10222901D002206A
:1020A00010BD8168B1F5805F11D001690029016818
:1020B0001FD0496801F07F03816A4A1C82620B705D
:1020C000C18D491E0904090CC18518D026E002699A
:1020D000816A002A0268526805D0D2B20A80816AF9
:1020E000491C8162ECE7C2F308020A80816A891CFC
:1020F000F7E74A68816A4B1C83620A70E0E701686F
:10210000CA6822F49072CA6001684A6922F001022A
:102110004A61202180F83A10FFF722FC002010BD10
:102120002DE9F04104460068016921F44052E1685C
:10213000114301612168C86849F20C629043236928
:10214000A268E5691A4363692B431A430243CA60D4
:102150002168486920F44072A06910434861E16930
:102160006425B1F5004F9748974A21684FF032082F
:102170003FD0914201D081427CD1FEF711FF00EBAC
:10218000C00101EB001061688900B0FBF1F6FEF7B9
:1021900007FF00EBC00101EB001061688900B0FB94
:1021A000F1F0B0FBF5F06FF01801484306EB800149
:1021B00008EB0110B0FBF5F000F0F006FEF7F0FEC2
:1021C00000EBC00101EB001061688900B0FBF1F089
:1021D000B0FBF5F006EB0016FEF7E2FE00EBC001E7
:1021E00001EB001061688900B0FBF1F7FEF7D8FE43
:1021F000D2E0914201D081423DD1FEF7D1FE00EB09
:10220000C00101EB001061684900B0FBF1F0B0FBC8
:10221000F5F00601FEF7C4FE00EBC00101EB001073
:1022200061684900B0FBF1F7FEF7BAFE00EBC001B0
:1022300001EB001061684900B0FBF1F0B0FBF5F074
:102240006FF01801484307EB800108EBC100B0FBB9
:10225000F5F000F0F80006EB4006FEF7A1FE00EBFB
:10226000C00101EB001061684900B0FBF1F7FEF717
:1022700097FE3CE055E0FEF783FE00EBC00101EB6A
:10228000001061684900B0FBF1F0B0FBF5F0060109
:10229000FEF776FE00EBC00101EB0010616849001B
:1022A000B0FBF1F7FEF76CFE00EBC00101EB001094
:1022B00061684900B0FBF1F0B0FBF5F06FF0180178
:1022C000484307EB800108EBC100B0FBF5F000F0DC
:1022D000F80006EB4006FEF753FE00EBC00101EBF1
:1022E000001061684900B0FBF1F7FEF749FE00EB12
:1022F000C00101EB001061684900B0FBF1F0B0FBD8
:10230000F5F06FF01801484307EB800108EBC100BE
:10231000B0FBF5F000F00700216830448860BDE8AC
:10232000F081FEF72DFE00EBC00101EB00106168AB
:102330008900B0FBF1F6FEF723FE00EBC00101EBD4
:10234000001061688900B0FBF1F0B0FBF5F06FF0B0
:102350001801484306EB800108EB0110B0FBF5F0D3
:1023600000F0F006FEF70CFE00EBC00101EB0010E0
:1023700061688900B0FBF1F0B0FBF5F006EB0016E8
:10238000FEF7FEFD00EBC00101EB00106168890063
:10239000B0FBF1F7FEF7F4FD00EBC00101EB00101C
:1023A00061688900B0FBF1F0B0FBF5F06FF0180147
:1023B000484307EB800108EB0110B0FBF5F000F09B
:1023C0000F00A9E7001401400010014090F83910F7
:1023D000212901D0022070478168B1F5805F016A30
:1023E0000BD04A1C0262026809785160C18C491EF8
:1023F0000904090CC1840ED017E009880268C1F3F2
:102400000801516001690029016A02D0491C01627A
:10241000ECE7891CFBE70168CA6822F08002CA6009
:102420000068C16841F04001C160002070470000B1
:102430000148FFF7DFB80000680200200148FFF7FD
:10244000D9B80000A80200200148FFF7D3B8000067
:10245000E8020020FEE7FEE702E008C8121F08C1FC
:10246000002AFAD170477047002001E001C1121F15
:10247000002AFBD17047FEF723FCFFF76DFDFFF745
:10248000B7FAFFF79FFAFFF76FFAFFF771FBFFF755
:1024900099FBFFF7C1FBFFF7EDFBFFF719FCFFF717
:1024A00045FCFFF769FCFFF78DFCFFF7B1FCFFF778
:1024B000D5FCFFF7F9FCFEE7000610160006101623
:1024C00000000000000000000102030406070809E4
:1024D0000000000001020304F824000800000020AE
:1024E00010000000582400080825000810000020F3
:1024F000B807000068240008010000001000000078
:08250000000000000024F400BB
:040000050800018965
:00000001FF
